:020000040800F2
:100000008F1300202902000865020008670200081B
:10001000690200086B0200086D0200080000000081
:100020000000000000000000000000006F02000857
:10003000710200080000000073020008A509000812
:1000400077020008770200087702000877020008AC
:100050007702000877020008B10400087702000860
:1000600077020008E9040008770200087702000818
:10007000770200087702000877020008770200087C
:10008000770200087702000877020008770200086C
:1000900077020008770200087702000825050008AB
:1000A000770200087702000877020008770200084C
:1000B000770200087702000877020008770200083C
:1000C000770200087702000877020008770200082C
:1000D000770200087702000877020008770200081C
:1000E000770200087702000877020008770200080C
:1000F00077020008770200087702000877020008FC
:1001000077020008770200087702000877020008EB
:1001100077020008770200087702000877020008DB
:1001200077020008770200087702000877020008CB
:1001300077020008770200087702000877020008BB
:1001400077020008770200087702000877020008AB
:10015000770200087702000877020008770200089B
:10016000770200087702000877020008770200088B
:1001700077020008770200087702000800000000FC
:10018000770200087702000800F002F800F03CF85F
:100190000AA090E8000C82448344AAF10107DA45E2
:1001A00001D100F031F8AFF2090EBAE80F0013F0F8
:1001B000010F18BFFB1A43F001031847E4230000A6
:1001C00004240000103A24BF78C878C1FAD8520736
:1001D00024BF30C830C144BF04680C6070470000C1
:1001E0000023002400250026103A28BF78C1FBD840
:1001F000520728BF30C148BF0B6070471FB502F0DF
:1002000013F91FBD10B510BD00F067F81146FFF7D8
:10021000F5FF01F013FB00F085F803B4FFF7F2FFE0
:1002200003BC00F089F8000016481749174B9942A3
:100230003CBF50F8042B41F8042BF8D314494FF07D
:1002400000028B4238BF43F8042BFAD3DFF8440096
:10025000016841F470010160BFF34F8FBFF36F8FEE
:100260000D480047FEE7FEE7FEE7FEE7FEE7FEE794
:10027000FEE7FEE7FEE7FEE708480949094A0A4BA0
:1002800070470000C025000800000020100000207A
:100290009013002088ED00E0890100089001002003
:1002A0008F130020900300209003002070477047B8
:1002B000704710B500F008F8006810BD10B504468E
:1002C00000F002F8046010BD0048704730010020C3
:1002D000004870473001002070477546FFF7F8FF6F
:1002E000AE4605006946534620F00700854618B023
:1002F00020B5FFF7C1FFBDE820404FF000064FF0EA
:1003000000074FF000084FF0000B21F00701AC464A
:10031000ACE8C009ACE8C009ACE8C009ACE8C00969
:100320008D46704710B50446AFF300802046BDE807
:100330001040FFF772BF000001491820ABBEFEE776
:100340002600020000B500F099F95548006E40F013
:100350008070534908660846006C40F0807008645D
:100360000846006C20F0807008644E48006C20F055
:1003700080004C4908640846006C20F003000864C3
:100380000846006C20F00C0008640846006C40F041
:10039000040008640846406CC0B248640846406CDB
:1003A00020F0F80048640846006C20F4807008646F
:1003B0000846006C40F0800008640846006820F0A1
:1003C000800008600846006820F080400860084609
:1003D000006820F47F0008600846006840F40020B0
:1003E00008600846006840F0800008600846006821
:1003F00040F0004008602C48006820F00100C1F87F
:1004000000010846D0F8000120F0E060C1F80001CA
:100410000846D0F8000140F00070C1F8000108461D
:10042000D0F8000140F48020C1F800010846D0F85F
:10043000000140F00050C1F800010846D0F8140156
:1004400020F06040C1F814010846D0F8140140F0D3
:10045000C040C1F814011448143000681349084022
:100460001049C1F814010846D0F8140140F4C8003E
:10047000C1F814010846D0F8140120F0FF00C1F8BB
:1004800014010846D0F8140140F00100C1F814012D
:100490000846D0F8000140F00100C1F8000100BD9D
:1004A000001002400060014000610140FFFF00FCBD
:1004B00010B50B48006840F0010009490860094880
:1004C0000078012803D100200649087002E00120CD
:1004D0000449087002220C21024801F0E9FA10BD1B
:1004E000140401400D00002010B50C48006840F0D5
:1004F00008000A4908600A480078072805DA084811
:100500000078401C0649087002E007200449087082
:1005100002220A21024801F0CBFA10BD1404014066
:100520000C00002010B50C48006840F020000A497B
:1005300008600A480078002805DD08480078401E59
:100540000649087002E000200449087002220A21CE
:10055000024801F0ADFA10BD140401400C00002067
:1005600010B54348C06C40F001004149C8644FF0E9
:100570009040006820F003004FF09041086008466A
:10058000006820F0C00008600846006820F4406061
:1005900008600846C06820F00300C8600846C068CC
:1005A00040F00200C8600846C06820F0C000C86083
:1005B0000846C06840F08000C8600846C06820F463
:1005C0004060C8600846C06840F40060C8602948C0
:1005D000806820F0070027498860084680688860A6
:1005E0000846806820F4E04088600846806888609B
:1005F0000846806820F0700088600846806888603F
:100600001D48006840F001001B490860084600686A
:1006100040F0080008600846006840F020000860CC
:1006200015480C38006840F0010013490C39086087
:100630000846006840F0080008600846006840F07E
:1006400020000860062000F0CDF9092000F0CAF96A
:10065000172000F0C7F90021062000F0D5F900218D
:10066000092000F0D1F90021172000F0CDF910BDCC
:1006700000100240000001400C0401402748C06CFB
:1006800040F010002549C8642548006820F4404027
:10069000234908600846006820F4402008600846A6
:1006A000006840F4004008600846006840F40020FC
:1006B00008600846406820F08000486008464068AE
:1006C00020F4007048600846C06820F44040C860CC
:1006D0000846C06820F44020C8600846806840F49E
:1006E000404088600846806840F4402088600846A2
:1006F000006A20F0704008620846406A20F0F0016D
:1007000007484162006A40F0C04005490862084657
:10071000406A40F0600102484162704700100240A8
:10072000001000484A48C06C40F010004849C864B6
:100730004848806840F040704649886008468068B4
:1007400040F0406088600846806840F04050886013
:100750000846806840F0404088600846406820F4C1
:10076000805048600846406820F4005048600846C1
:10077000406820F4804048600846406820F400400B
:1007800048600846C06820F04070C8600846C068ED
:1007900020F04060C8600846C06820F04050C86043
:1007A0000846C06820F04040C8600846006820F055
:1007B000407008600846006820F040600860084605
:1007C000006820F0405008600846006820F0404073
:1007D00008600846006840F000700860084600683D
:1007E00040F0006008600846006840F00050086073
:1007F0000846006840F0004008600846406A20F45F
:10080000702114484162406A40F4A02111484162BD
:10081000406A20F470010F484162406A40F4A00130
:100820000C484162406A20F070610A484162406AA7
:1008300040F0A06107484162406A20F070410548DD
:100840004162406A40F0A0410248416270470000A6
:100850000010024000100048002105E0002200E0E6
:10086000521C122AFCD3491C8142F7D37047000066
:100870003A48006E40F48050384908660846806B5C
:1008800040F4805088630846806B20F48050886371
:100890003348006820F0400031490860084600688D
:1008A00020F4806008600846006820F4004008607A
:1008B0000846006840F4804008600846006820F060
:1008C000800008600846406820F470604860084670
:1008D000406840F4E06048600846406820F010003E
:1008E00048600846006820F002000860084600687A
:1008F00020F0010008600846006820F03800086019
:100900000846006840F0280008600846006820F4A7
:10091000005008600846006840F00400086008467F
:10092000006840F4007008600846406840F0080025
:1009300048600846006840F48070086008464068D7
:1009400020F4805048600846406840F48050486079
:100950000846006840F04000086070470010024000
:100960000030014030B50C46002100BF10E000BF50
:10097000856805F00205022DFAD1655C057300BF9C
:10098000856805F00105002DFAD0057B5554491CFA
:100990009942ECDB00BF856805F08005802DFAD018
:1009A00030BD000002480068401C014908607047E3
:1009B0000000002003B401984100009850EAC120D3
:1009C00018BF04204A0D18BF40F0010040F2FF722A
:1009D000B2EB515F08BF40F00200012808BF0520BC
:1009E00002B0704700280DDB00BF00BF00F01F02FF
:1009F000012191404209920002F1E022C2F8001167
:100A000000BF00BF7047000010B5002804DB0A07D4
:100A1000130E054A135406E00A07140E034A00F0A9
:100A20000F031B1FD45410BD00E400E018ED00E0DC
:100A300010B52F499FED2C1B2DED020B84B00598AE
:100A400020F000408842D8BF9DED040B2DDD2949E0
:100A5000884209D1049840B94FF00100FFF72EFCFD
:100A600000F092FD06B010BD05DB9DED040B00F01B
:100A70007FFD06B010BD68469DED040B00F080F9C7
:100A800010F0030004BF9DED021B9DED000B0CD088
:100A900001280ED09DED021B9DED000B022817D002
:100AA000012000F0C1FC06B010BD00F089FB06B0CB
:100AB00010BD9DED021B9DED000B012000F0B4FC6C
:100AC00051EC100B01F024F806B041EC100B10BDF6
:100AD00000F076FB51EC100B01F01AF806B041EC77
:100AE000100B10BD0000000000000000000000001E
:100AF000FB21E93F0000F07F10EE100A10B5A0F5D1
:100B000000014FF0000CB1F1FE4F6CD200F5002156
:100B10006FF07E0202EBE153C1F302524FF07E51BF
:100B200001EB025100EE901AA0EBC3500CEB030155
:100B300000EE100A51EA020036D030EE601A30EEB4
:100B4000200AC1EE000A20EEA00A60EE801A9FED96
:100B50003D2A9FED3D1A3D48DFED3F2A00EE021A87
:100B6000784400EB82009FED3A2A21EE810A01EEE3
:100B7000101AD0ED001A3748B8EEC11A784400EBCD
:100B8000820041EE021A01EE101A90ED002AB8EE32
:100B9000C11A01EE222A9FED311A32EE000A00EE50
:100BA000810A31EE800A10BDF7EE000A9FED2D1A82
:100BB00070EE600A9FED2A0A00EE801A9FED2A0A65
:100BC00060EEA01A00EE810A9FED281A00EE801A4E
:100BD00021EE810A9FED261A00EE810AB5EE0B1A6E
:100BE00000EE810A10BD4FF07F41B1EB400F03D200
:100BF000BDE8104000F0F2BCB0F1FF4F08BF10BDDF
:100C0000B5EEC00AF1EE10FA06D20120FFF756FB4E
:100C1000BDE8104000F0E6BCB5EEC00AF1EE10FAF7
:100C200007D10220FFF74AFB00F0CEFCB1EE400AEC
:100C300010BDDFED100A6FF0160C20EE200A10EE4A
:100C4000100A63E7DE02323E3B3D943ED8180000B6
:100C500000209A3EDC180000FC849A36D95B5E3F87
:100C6000924FA93D7279DEBD2D3E143ED85B5EBE2B
:100C7000157B4B3C0000004B10B52F499FED2C1B02
:100C80002DED020B84B0059820F000408842DCBFB7
:100C900000209DED040B32DD2849884209D10498DB
:100CA00040B94FF00100FFF709FB00F06DFC06B002
:100CB00010BD05DB9DED040B00F05AFC06B010BD25
:100CC00068469DED040B00F05BF810F0030011D0B6
:100CD000012818D09DED021B9DED000B02281AD0B3
:100CE00000F06EFA51EC100B00F012FF06B041EC70
:100CF000100B10BD9DED021B9DED000B012000F0BF
:100D000093FB06B010BD9DED021B9DED000B00F0A6
:100D100057FA06B010BD012000F086FB51EC100B15
:100D200000F0F6FE06B041EC100B10BD0000000014
:100D30000000000000000000FB21E93F0000F07F00
:100D400010B52DED028BB1EEC08A18EE100A20F01E
:100D50000040C0F1FF40C00F0AD010EE100A20F092
:100D60000040C0F1FF40C00F04BF0120FFF7A6FA0A
:100D7000B0EE480ABDEC028B10BD00000000000080
:100D80002DE9F14F04462DED020B2DED088B8AB0B5
:100D90009FEDE70B80ED020B139EE74826F0004520
:100DA00085420ADC9DED120B002084ED000B0AB099
:100DB000BDEC088B03B000F0FFB9E0489FEDE0AB5D
:100DC0009FEDE1BBA84247DDE14F9FEDE39B9FED27
:100DD000E48B9DED120B53EC1A2B51EC100B002EF3
:100DE0001CDD01F037FA41EC100BBD4208D053EC8A
:100DF0001B2B51EC100B01F02DFAC4E900010BE0A4
:100E000053EC192B51EC100B01F024FA53EC182B76
:100E100001F020FAC4E900010120C8E700F0B6FEA5
:100E200041EC100BBD4208D053EC1B2B51EC100BC6
:100E300000F0ACFEC4E900010BE053EC192B51ECBF
:100E4000100B00F0A3FE53EC182B00F09FFEC4E93A
:100E500000014FF0FF30AAE7C348A84279DB9DEDBF
:100E6000120B51EC100B00F0D4FB41EC180B9FED72
:100E7000C00B53EC102B01F0E3F89FEDBF1B53ECBC
:100E8000112B00F083FE01F081F8074601F0ADF868
:100E900041EC190B53EC1A2B01F0D2F853EC182B40
:100EA00001F0CCF941EC180B53EC1B2B51EC190B56
:100EB00001F0C6F8DFF8C8A241EC100B4FEA155854
:100EC0000125FA4453EC102B51EC180B01F0C2F938
:100ED000032DC4E900013DD0C1F30A5005EB4511D3
:100EE000A8EB00001139814234DA0AEB051BB0EEA1
:100EF00048AA9BED000BF0EE68AA53EC102B51ECC6
:100F0000190B01F09DF841EC1B0B51EC1A0B53EC43
:100F10001B2B01F09FF941EC180B51EC1A0B53EC11
:100F2000182B01F097F953EC1B2B01F093F99BED73
:100F3000020B41EC1A0B53EC102B51EC190B01F086
:100F40007FF853EC1A2B01F085F941EC100B6D1C66
:100F5000B8E70EE0002EA8BF3846BFF628AF94EDE4
:100F6000000B51EC100B00F0D3FDC4E900017842F6
:100F70001DE7C6F3130040F4801EC6F30A50A0F22A
:100F8000F530471100F01F05C5F12000DDF848B02D
:100F900008900020069007900520EC467949002D26
:100FA00007EB0002794408BF51F8221009D051F82C
:100FB000223001EB8201AB404A68089922FA01F124
:100FC0001943A1FB0E26A1FB0B131A449A4234BF0E
:100FD0000123002303EB06080CEB8003D3E901A6F1
:100FE0000E448E4234BF0121002192448A4411B143
:100FF000924502D903E0924501D2012100E000218F
:10100000C3E901A641444CF82010011EA0F10100E3
:10101000C4DC029800F10050850F0298DDE90367F7
:101020008000DDF8148000F0E0FF41EC1A0B304640
:1010300000F0F2FF9FED541B53EC112B01F000F870
:1010400041EC1B0B384600F0E7FF9FED511B53ECC2
:10105000112B00F0F5FF41EC180B404600F0DCFFCF
:101060009FED4D1B53EC112B00F0EAFF41EC190BE7
:1010700051EC180B53EC192B00F088FD53EC1B2B93
:1010800000F084FD53EC1A2B00F080FDCDE908013F
:10109000002008909DED080B53EC1A2B51EC100B1F
:1010A00001F0D8F853EC1B2B01F0D4F853EC182BBB
:1010B00001F0D0F853EC192B01F0C0F89FED381B6C
:1010C00053EC112B00F0BCFF9FED370B41EC180BDC
:1010D00053EC102B9DED080B51EC100B00F0B0FF02
:1010E00053EC182B00F052FD9FED310B41EC180B27
:1010F00053EC102B9DED080B51EC100B00F0A0FFF2
:1011000053EC182B00F042FD41EC100B139810F03B
:10111000004F06D06D4251EC100B00F0F9FC41EC91
:10112000100B284684ED000B41E600000000000093
:101130000000000000000000FB21E93F7CD90240D4
:1011400000004054FB21F93F3163621A61B4D03D85
:10115000FB21F93F000000000000601A61B4D03D9F
:101160007370032E8A19A33BFB2139410000000054
:1011700083C8C96D305FE43F000000000000E03F1D
:10118000EA15000038150000000000000000103EC5
:10119000000000000000103C000000000000103AB9
:1011A000182D4454FB21F93D3326A611460B113C62
:1011B00000000054FB21F93D30BCBDE8C08F0000A9
:1011C00010B52DED040B2DED088B82B0B0EE419AD9
:1011D000F0EE619A0B9820F000449FED4BABB4F118
:1011E000795F11DA9DED0A0B51EC100B00F0CEFE89
:1011F000002801BFB0EE4A0AF0EE6A0A02B0BDEC68
:10120000088B04BF04B010BD9DED0A0B53EC102BEE
:1012100051EC100B00F014FF41EC180B3C48062178
:10122000B0EE480AF0EE680A784400F081F853EC1A
:10123000182B51EC100B00F003FF9DED0A0B41EC55
:101240001B0B53EC192B51EC100B00F0F9FE41EC89
:10125000190B53EC1B2B51EC180B00F0F1FE53EC67
:10126000192B00F0F7FF9FED2C0B41EC190B53EC01
:10127000102B51EC180B00F0E3FE41EC100B28484A
:10128000844210DA53EC192B51EC100B00F0E2FF02
:1012900053EC1A2B00F0D2FF41EC100B02B0BDEC66
:1012A000088B04B010BD1F48A042BCBF9FED1E1BA1
:1012B0008DED001B06DBA4F50010019000200090CE
:1012C0009DED001B51EC100B53EC112B00F0C2FFF5
:1012D0009DED000B41EC180B53EC102B51EC1A0B4D
:1012E00000F0B8FF41EC1A0B53EC192B51EC180B22
:1012F00000F0B0FF53EC1A2B00F0A0FF41EC100BF4
:10130000CCE7000000000000000000000000F03FFB
:101310005412000000000000000000000000E03F48
:101320003333D33F0000E93F000000000000D23F0C
:1013300070B504462DED028B4D1E00EBC500B0EEDE
:10134000408AF0EE608A90ED000B35F0060017D071
:1013500053EC182B51EC100B00F072FE41EC100B0B
:101360006D1E04EBC50090ED001B51EC100B53EC0F
:10137000112B00F00BFC41EC100B35F00600E7D10F
:10138000022D36D0042D1CD0062D1CBFBDEC028BC7
:1013900070BD53EC182B51EC100B00F051FE94ED86
:1013A0000A1B53EC112B00F0F1FB53EC182B00F04F
:1013B00047FE94ED081B53EC112B00F0E7FB41ECCA
:1013C000100B53EC182B51EC100B00F039FE94ED80
:1013D000061B53EC112B00F0D9FB53EC182B00F03B
:1013E0002FFE94ED040B53EC102B00F0CFFB41ECDF
:1013F000100B53EC182B51EC100B00F021FE94ED68
:10140000021B53EC112B00F0C1FB53EC182B00F026
:1014100017FE94ED001B53EC112B00F0B7FBBDEC55
:10142000028B41EC100B70BD31B504462DED040B61
:101430002DED0A8BB0EE41BAF0EE61BA0B989DED3E
:101440000A0B20F00040B0F1795F0DDA51EC100B7F
:10145000FFF7B0FA042808BF00F0A6F89DED0A0BCC
:1014600000F07AB805B030BD53EC102B51EC100BE6
:1014700000F0E6FD41EC180B9DED0A0B53EC182B28
:1014800051EC100B00F0DCFD41EC190B2C48B0EED8
:10149000480AF0EE680A05217844FFF749FF9FEDFE
:1014A0002ACBB0EE40AAF0EE60AA9CB353EC1C2B02
:1014B00051EC190B00F0C4FD41EC1C0B53EC1A2B42
:1014C00051EC190B00F0BCFD9FED210B41EC190B09
:1014D00053EC102B51EC1B0B00F0B2FD53EC192B0D
:1014E00000F0B8FE53EC182B00F0AAFD53EC1B2BB8
:1014F00000F0B0FE53EC1C2B00F0ACFE9DED0A1B7F
:1015000053EC112B00F09AFE00F02CB805B041EC22
:10151000100B30BDFFE753EC1A2B51EC180B00F009
:101520008FFD53EC1C2B00F031FB53EC192B00F01A
:1015300087FD9DED0A1B53EC112B00F027FBE3E721
:10154000DC10000000000000495555555555C5BF39
:10155000000000000000E03FBDEC088BBDEC02CBBA
:10156000FFF780BFBDEC088BBDEC02CBFFF7CEBF11
:1015700010B553EC102B51EC100B00F007FB41ECB5
:10158000100B10BD000000009FED050B10B553ECD3
:10159000102B51EC100B00F0A1FB41EC100B10BD17
:1015A00000000000000000009FED050B10B553EC9B
:1015B000102B51EC100B00F043FD41EC100B10BD53
:1015C0000000000000000010DFED030AB7EE001A73
:1015D00081EE200A704700000000000030EE000A93
:1015E00070470000DFED020A80EEA00A704700009D
:1015F0000000000038B500200090002406E0601CC8
:10160000C1B20222684600F053FA641C082CF6DBD3
:1016100038BD82B0CDE9000121F0004001909DED80
:10162000000B02B051EC100B704700002DE9F04F99
:101630002DED0C8B85B006460C469246012C7CDDC8
:101640005746204604EBD07149100AEBC1094FF010
:10165000000810E007EBC80006EB081206CA06C037
:1016600009EBC8014FEA4800401C06EBC00205CA5E
:1016700005C108F1010804EBD471B8EB610FE9DB97
:10168000A34604EBDB70411032463846FFF7CEFF2D
:1016900004EBDB70411032464846FFF7C7FF0025D8
:1016A000B1E0204600F0A1FC41EC1A0B284600F006
:1016B0009CFC41EC1C0B9FED5A0B53EC102B00F0E3
:1016C000BFFC41EC1B0B53EC1A2B00F007FB41EC69
:1016D000190BB0EE490AF0EE690AFFF7A9F9B0EE6E
:1016E000408AF0EE608A51EC180B00F01DFA019070
:1016F000204600F07AFC41EC1B0B284600F075FCFC
:1017000041EC1D0B9FED460B53EC102B00F098FCA9
:1017100041EC1C0B53EC1B2B00F0E0FA41EC1A0BD4
:10172000B0EE4A0AF0EE6A0AFFF7A6FAB0EE409A67
:10173000F0EE609A51EC190B00E06BE000F0E8F974
:1017400041EC180B00F0F0F902909DED010A09EB55
:10175000C500D0ED000A20EE200ADDED020A09EBFB
:10176000C50090ED011A00EEC10A8DED030A9DED52
:10177000010A09EBC500D0ED010A20EE200ADDEDDB
:10178000020A09EBC50090ED001A00EE810A8DED0A
:10179000040A07EBC50090ED000ADDED030A30EE08
:1017A000200A06EBC50080ED000A07EBC50090EDAE
:1017B000010ADDED040A30EE200A06EBC50080EDDB
:1017C000010A07EBC50191ED000ADDED030A30EED9
:1017D000600A204604EBD07105EB610106EBC10104
:1017E00081ED000A07EBC50191ED010ADDED040A68
:1017F00030EE600A04EBD07105EB610106EBC1012C
:1018000081ED010A6D1C04EBD471B5EB610FFFF69D
:1018100048AF00BF05B000F007B800F00BB80000FB
:10182000182D4454FB211940BDEC088BBDEC04CBB2
:10183000FFF7F3BF30BCBDE8C08F00002DED028B79
:1018400090B05C48006840F480705A49086000BF5E
:101850005848006800F480600028F9D05548806836
:1018600020F00300534988600846806840F001007A
:10187000886000BF4F48806800F00C000028F9D055
:10188000FEF760FD00F0A4F8FEF76AFE002500BF39
:101890008FE04948006840F400304849C1F8000131
:1018A00000BF45480830006800F002000028F8D06A
:1018B00041481C300768380A00EE100AB8EE400AAA
:1018C0003F4800EBC50080ED000A9FED3E0A3C4812
:1018D00000EBC50080ED010A6D1C102D69D13A4A5C
:1018E00010213748FFF7A2FE4FF0320800243EE0F7
:1018F000334800EBC400D0ED000A60EEA00A304887
:1019000000EBC40090ED011A2D4800EBC400D0EDAF
:10191000011A41EE210AB0EE600AFFF711FAB0EEAB
:10192000408AB0EE480AFFF7E7F8F3EE040A20EE2B
:10193000200ABDEEC00A10EE100AA0EB08004DF818
:1019400024005DF82400002802DA00204DF824006D
:101950009FED1C0A1C4800EBC50080ED000A9FEDBE
:10196000190A194800EBC50080ED010A641C102C0F
:10197000BEDB0026002015E05DF820100C2291FB54
:10198000F2F1082904DD0821104A42F8261007E088
:101990005DF820100C2291FBF2F10C4A42F826105F
:1019A000761C401C0828E7DB084800F03DF80025BD
:1019B00000BF6EE70010024000610140006001407E
:1019C0001000002000000000900000201001002006
:1019D00000B585B0FEF7A6FEFEF74AFF072004908B
:1019E00001200390002002900190FF20009004222B
:1019F0000B2104A800F05CF804220C2103A800F0DD
:101A000057F80422092102A800F052F804220A2102
:101A100001A800F04DF804220021684600F048F8C3
:101A2000FFF7E8FD05B000BD38B50546002439E0F4
:101A30000020009055F82400092821D2DFE800F0AA
:101A400005080B0E1114171A1D000020009017E056
:101A50000120009014E00320009011E00720009086
:101A60000EE00F2000900BE01F20009008E03F20C8
:101A7000009005E07F20009002E0FF20009000BF72
:101A800000BF0A48005D9DF80010884209D0601C24
:101A9000C1B20222684600F00BF89DF8000003492D
:101AA0000855641C082CC3DB38BD0000040000206E
:101AB00037B588B005461446012C04DD9DF8240096
:101AC00040F0400009901048406920F480500E49D1
:101AD00048610A20FEF7C0FE01236A4609A90B48A7
:101AE000FEF740FF23466A4629460848FEF73AFFBC
:101AF0000A20FEF7B1FE0448406940F480500249D4
:101B000048610BB030BD00000010004800300140BB
:101B100081F00041704780F00040704721F00041A3
:101B2000704720F00040704721F00042A2F160525F
:101B3000B2F5801F01F0004328BFD2F17F6C0BD9B2
:101B40005FEA001C43EAC20242EB507018BF7047C4
:101B500028BF20F001007047B2F5801FBCBF1846B7
:101B600070474FEA410C1CF5001F02D2084600F0F6
:101B700060BC70B500F00EFB00000089FFF7F6BFF7
:101B80004FF00040A0F580007047000010B591EACA
:101B9000030F48BF83F0004300F16483841A71EBA4
:101BA000030C05D2121943EB0C03001B61EB0C0173
:101BB000DFF824E14FEA1154A4EB135C1EEA430F53
:101BC00018BF9EEA445F73D023EA0E03DCF1200EB7
:101BD00021EA045143F4801332D322FA0CFE10EBB5
:101BE0000E0023FA0CFE41EB0E01CCF1200E03FA9D
:101BF0000EFE10EB0E0051F10001B1F5801FCCF18B
:101C0000200E32D201EB045112FA0EF2BDE8104060
:101C100058BF7047401C38BF5FEA420218BF704788
:101C2000002814BF20F0010041F100014FEA4103F8
:101C300013F5001F38BF7047A1F1C04100F0F8BA9A
:101C4000012A43EB0302ACF1200CDCF11F0E32BF82
:101C50004FF0000E23FA0CF310EB030041EB04519C
:101C6000B4EB115FD0D0A1EB045101F5801149080C
:101C70005FEA300001EB04510ED350F1000038BF91
:101C800012FA0EFE08D1BDE81040C9E7401C38BF6B
:101C90005FEA4202CAD1C3E7BDE810404FEA410300
:101CA00013F5001F38BF7047A1F1C04100F0C0BA62
:101CB0009EEA445F08D011EA5E0FBDE8104004BF01
:101CC00001F0004100207047BDE8104070B500F001
:101CD00061FA00BF64FBBE3E0000E0FF2DE9C04199
:101CE00030B4DFF8A0C23CEA111418BF3CEA131468
:101CF00000F0EC8081EA03051CEA111444EAD57473
:101D000018BF1CEA131500F0C780A4EB05044FF0C0
:101D1000004545EAC12145EAC32341EA505143EA5F
:101D2000525304F17F74994204F500344FEAC02005
:101D30004FEAC22208BF904200F09C804FEA136530
:101D40000FF24016765D4FEA134506FB05F7C7F123
:101D5000807706FB07F74FEAD737A7FB0368764281
:101D6000C8F58038A7FB06CE38BFA8F1010807FBED
:101D700008E64FF0000EA6FB028CE6FB03CEDCF17A
:101D8000000CCEF1004E38BFAEF1010EA6FB0C5890
:101D90004FF000074FF00005E6FB0E87A1FB08C6D9
:101DA000A0FB07CE16EB0E0645F10005E1FB07652B
:101DB00015F1E04E7EBFA4F580345FEA46066D4122
:101DC00016F1800745F100054FEA17274FEA06662E
:101DD00047EA0567A6F1DE46B6F1805F4FEA1525B2
:101DE0001FD9384624F0010C05EBC471BCF1FE6F1D
:101DF00001EB0C1102D8F0BCBDE8008124425CBFAD
:101E000001F5801E9EEAC47F02D4F0BCBDE80081CB
:101E1000244238D4F0BCA1F1C041BDE8004100F03B
:101E200007BA4FEAD22242EA43524FEAD323A7FB32
:101E300002864FEAD02040EA415007FB03661EEAC3
:101E40000E0F4FEAD12105FB026658BFA6EB0056E4
:101E5000B6EB00564FEA520E4EEAC37E18EB0E0E5A
:101E600056EB530EBDD518EB02085E417F1C55F1B1
:101E70000005B6E74FF480154FF000074FF000065D
:101E80004FF00008ADE7F0BC4FF0000001F1C04199
:101E900001F00041BDE8008111EA0C1F0CEA1315A6
:101EA00000D00CE013EA0C1F00F025804FF000007A
:101EB000F0BC81EA030101F00041BDE80081F0BC03
:101EC000BDE8004181EA030100F0B2B9F0BCBDE811
:101ED000004170B500F05EF9097EFC3E00F007B8E5
:101EE00081EA03014FF0000001F00041704781EAF0
:101EF000030100F09DB9F0BCBDE800414FF00000C7
:101F000021497047FFFDFBF9F7F5F4F2F0EEEDEB38
:101F1000E9E8E6E4E3E1E0DEDDDBDAD8D7D5D4D3E7
:101F2000D1D0CFCDCCCBCAC8C7C6C5C4C2C1C0BF33
:101F3000BEBDBCBBBAB9B8B7B6B5B4B3B2B1B0AF39
:101F4000AEADACABAAA9A8A8A7A6A5A4A3A3A2A11D
:101F5000A09F9F9E9D9C9C9B9A99999897979695D8
:101F600095949393929191908F8F8E8E8D8C8C8B74
:101F70008B8A8989888887878685858484838382FC
:101F8000828181800000FF070000F87F4FEA410353
:101F90004FEA5353A3F58063D3F11E03C8BFD3F1B7
:101FA000210C0CDD4FF0004242EAC12242EA5052BD
:101FB00032FA03FC8CEAE17CACEBE1707047102B49
:101FC000C4BF0020704703F5787CBCF1FF3F04D00C
:101FD0006FF0004282EA2100704770B500F0DAF835
:101FE0004992248000207047F2E710F0004248BF79
:101FF0004042B0FA80F310FA03F10AD0C3F11D0396
:1020000003F580634FEA415002EB035202EBD1210A
:1020100070474FF000007047B0FA80F310FA03F1F8
:102020000AD0C3F11D0303F580634FEA41504FEA24
:10203000035202EBD12170474FF0000070470000BF
:10204000DFF848C170B51CEA111E1EBF1CEA13154B
:102050009EEA0C0F95EA0C0F00F06F8081EA0304F2
:1020600023EA4C134EEAD47E21EA4C1141F480114C
:1020700043F48013AE44A1FB024CA0FB0365AEF118
:102080007F7E361955EB0C05A1FB034C4CF1000388
:10209000A0FB021C16EB0C06654153F1000309423C
:1020A00018BF46F0010613F4007F0BD14FEA03314D
:1020B0004FEA0530340341EA155140EA16506FF0FB
:1020C00003020AE04FEAC3214FEAC520F40241EAC5
:1020D000555140EA56506FF0020202EB2E4201EBDE
:1020E000025585EACE710AD05FEA440C18BF24F08D
:1020F000004450F1000041F1000120EAD47040F2A8
:10210000FE7C624500D270BDA84214BF4FF08044EF
:102110004FF04044002E08BF0024BEF1806FA8BFDE
:10212000A1F1C041BDE8704080F282804FF0000014
:1021300001F1C04101F0004170479EEA0C0F0CEA2A
:10214000131518BF95EA0C0F06D04FF0000081EA76
:10215000030E0EF0004170BD00F01CF88900013E36
:1021600000F007B800F009B84FEA430C5FEA5C5C86
:1021700008D081EA030100F05BB84FEA410C5FEA46
:102180005C5CF6D14FF00000014970470000FF078A
:102190000000F87F0EF1020E2EF0030E5EF8046BC5
:1021A000364205D4012A43EB030515F5001F12D86A
:1021B000012841EB010C1CF5001F0CD80ED14FEA91
:1021C000D17C15F5001F0CEB4C0C0CF1020C08BF78
:1021D0004CEBD37C04E04FF0080C01E04FEAD37CD9
:1021E0000CEB4C0526FA05F606F00706B6F1040CD2
:1021F00006D20EEB860CBDE870404CF0010C604737
:10220000DFE80CF0090B02024FF000414FF0000034
:10221000A1F5002170BD19461046012851EB0104BB
:1022200018BFD4F5001484BF002001F0004170BD38
:102230000808A0F500114FEA3101704791EA030F39
:1022400010B581F000413FF5A9AC83F0004300F0E8
:1022500009B8000010B591EA030F48BF83F00043AE
:102260003FF59CAC841A71EB030C07D212198CF069
:10227000004C43EB0C03001B61EB0C01DFF8A4E105
:102280004FEA1154A4EB135C1EEA430F18BF9EEAF9
:10229000445F00F0B08023EA6E03524221EA045109
:1022A000C3EB6E0338BF5B1EDCF1200E25D322FA90
:1022B0000CFE10EB0E0043FA0CFE41EB0E01CCF1CC
:1022C000200E03FA0EFE10EB0E0051F10001CCF1CE
:1022D000200E29D412FA0EF201EB0451BDE8104091
:1022E00058BF7047401C1CBFB2F1004F7047002818
:1022F0000CBF491C20F00100704712EB020E43EBAB
:10230000030218BF4FF0010E4EEA4202ACF1200C5E
:10231000DCF11E0E54D943FA0CFE10EB0E0051F105
:10232000FF31CCF11E0ED5D50EF1010E12FA0EFEC4
:10233000404141EB010101EB445C5FEA5C5C10D978
:1023400010EBDE7001EB045138BFBEF1004FBDE869
:10235000104018BF704700280CBF491C20F0010036
:10236000704730D24FEAD42C11F5001124F40064E8
:102370001BD0B1FA81F20B3AA41AA41ED2F12003A9
:10238000914030FA03F31943904001EBCC71002CDB
:1023900001EB0451BDE81040A8BF704701F1C041F6
:1023A0004FF0000001F000417047B0FA80F310FADE
:1023B00003F100D110BDE41A173C4805C90AE4E74F
:1023C00001EB045110BD491001EB0451BDE8104070
:1023D0004FEA300002E04FF0000170474A0008BFAA
:1023E0000042F8D0B2F5001F28BF704701F000414D
:1023F0004FF0000070479EEA445F07D011EA5E0F7D
:10240000BDE8104004BF002100207047BDE8104027
:1024100070B5FFF7BFFE00BF40DFF63E83F000411E
:10242000104670470000E0FF4FF04070E1EE100AE8
:102430007047FF2141EAD050C005704700000000FE
:102440000080513D0070C63D00900D3E0050343E6E
:1024500000E0573E00D0783E00C08B3E00000000F8
:102460000AD6A936431C8C37658F7338832DA23664
:10247000121D1F38B3756F38D2535A380000000050
:102480004C5555555555A53F7751C1166CC156BF92
:102490009015CB19A001FA3EAD529C804F7E92BEA2
:1024A000C4B1B4BD9EEE213ED43888BEE9FAA8BDC1
:1024B00000004054FB21F93F3163621A61B4D03D02
:1024C0000000601A61B4D03D7370032E8A19A33BDB
:1024D0000000002E8A19A33BC14920259A837B392D
:1024E00000000000000000006E83F9A22915444E90
:1024F000D15727FCC0DD34F5999562DB4190433C10
:10250000AB6351FE61C5BBDE3A6E24B7E0D24D42EB
:10251000EA2E49061C92D1091CEB1DFE3EA729B1EB
:10252000F53582E88444BB2E26709CE9417E5FB479
:1025300039D69139F43953838B5F849C3B28F9BD9C
:10254000FF97F81F0F9805DE8B112FEF1F6D0A5AAA
:10255000CF7E366DB709CB27663F464F2DEA5F9E8B
:10256000C7BA27757BF1E5EBF739073DEA92528A46
:10257000B15FFB6B085D8D1FA6F810111111813F33
:10258000D561C119A0012ABF7DFEB157E31DC73E29
:10259000EB9C2B8AE6E55ABE7CD5CF5A3AD9E53D6D
:1025A000C02500080000002010000000C401000841
:1025B000D02500081000002080130000E001000872
:1025C0000000000000000000000000000101000009
:040000050800018965
:00000001FF
